{
  "_format": "hh-sol-artifact-1",
  "contractName": "SavingsCircle",
  "sourceName": "contracts/SavingsCircle.sol",
  "abi": [
    {
      "inputs": [
        {
          "internalType": "string",
          "name": "_name",
          "type": "string"
        },
        {
          "internalType": "string",
          "name": "_image",
          "type": "string"
        },
        {
          "internalType": "uint256",
          "name": "_contributionAmount",
          "type": "uint256"
        },
        {
          "internalType": "uint256",
          "name": "_maxParticipants",
          "type": "uint256"
        },
        {
          "internalType": "uint256",
          "name": "_roundDuration",
          "type": "uint256"
        },
        {
          "internalType": "uint256",
          "name": "_insuranceDeposit",
          "type": "uint256"
        },
        {
          "internalType": "address",
          "name": "_factory",
          "type": "address"
        }
      ],
      "stateMutability": "nonpayable",
      "type": "constructor"
    },
    {
      "inputs": [],
      "name": "FailedCall",
      "type": "error"
    },
    {
      "inputs": [
        {
          "internalType": "uint256",
          "name": "balance",
          "type": "uint256"
        },
        {
          "internalType": "uint256",
          "name": "needed",
          "type": "uint256"
        }
      ],
      "name": "InsufficientBalance",
      "type": "error"
    },
    {
      "inputs": [
        {
          "internalType": "address",
          "name": "owner",
          "type": "address"
        }
      ],
      "name": "OwnableInvalidOwner",
      "type": "error"
    },
    {
      "inputs": [
        {
          "internalType": "address",
          "name": "account",
          "type": "address"
        }
      ],
      "name": "OwnableUnauthorizedAccount",
      "type": "error"
    },
    {
      "inputs": [],
      "name": "ReentrancyGuardReentrantCall",
      "type": "error"
    },
    {
      "anonymous": false,
      "inputs": [
        {
          "indexed": false,
          "internalType": "uint256",
          "name": "failedRound",
          "type": "uint256"
        }
      ],
      "name": "CircleCancelled",
      "type": "event"
    },
    {
      "anonymous": false,
      "inputs": [
        {
          "indexed": true,
          "internalType": "address",
          "name": "participant",
          "type": "address"
        },
        {
          "indexed": false,
          "internalType": "uint256",
          "name": "amount",
          "type": "uint256"
        }
      ],
      "name": "ContributionReceived",
      "type": "event"
    },
    {
      "anonymous": false,
      "inputs": [
        {
          "indexed": true,
          "internalType": "uint256",
          "name": "index",
          "type": "uint256"
        },
        {
          "indexed": true,
          "internalType": "address",
          "name": "beneficiary",
          "type": "address"
        },
        {
          "indexed": false,
          "internalType": "uint256",
          "name": "amount",
          "type": "uint256"
        }
      ],
      "name": "FundsReleased",
      "type": "event"
    },
    {
      "anonymous": false,
      "inputs": [
        {
          "indexed": true,
          "internalType": "address",
          "name": "user",
          "type": "address"
        },
        {
          "indexed": false,
          "internalType": "uint256",
          "name": "amount",
          "type": "uint256"
        }
      ],
      "name": "InsuranceRefunded",
      "type": "event"
    },
    {
      "anonymous": false,
      "inputs": [
        {
          "indexed": true,
          "internalType": "uint256",
          "name": "roundIndex",
          "type": "uint256"
        },
        {
          "indexed": false,
          "internalType": "uint256",
          "name": "amountUsed",
          "type": "uint256"
        }
      ],
      "name": "InsuranceUsed",
      "type": "event"
    },
    {
      "anonymous": false,
      "inputs": [
        {
          "indexed": true,
          "internalType": "address",
          "name": "previousOwner",
          "type": "address"
        },
        {
          "indexed": true,
          "internalType": "address",
          "name": "newOwner",
          "type": "address"
        }
      ],
      "name": "OwnershipTransferred",
      "type": "event"
    },
    {
      "anonymous": false,
      "inputs": [
        {
          "indexed": true,
          "internalType": "address",
          "name": "user",
          "type": "address"
        },
        {
          "indexed": true,
          "internalType": "uint256",
          "name": "roundIndex",
          "type": "uint256"
        },
        {
          "indexed": false,
          "internalType": "uint256",
          "name": "amountUsed",
          "type": "uint256"
        }
      ],
      "name": "ParticipantDefaulted",
      "type": "event"
    },
    {
      "anonymous": false,
      "inputs": [
        {
          "indexed": true,
          "internalType": "address",
          "name": "participant",
          "type": "address"
        }
      ],
      "name": "ParticipantJoined",
      "type": "event"
    },
    {
      "anonymous": false,
      "inputs": [
        {
          "indexed": true,
          "internalType": "uint256",
          "name": "roundIndex",
          "type": "uint256"
        }
      ],
      "name": "RefundIssued",
      "type": "event"
    },
    {
      "anonymous": false,
      "inputs": [
        {
          "indexed": true,
          "internalType": "uint256",
          "name": "index",
          "type": "uint256"
        },
        {
          "indexed": true,
          "internalType": "address",
          "name": "beneficiary",
          "type": "address"
        },
        {
          "indexed": false,
          "internalType": "uint256",
          "name": "startTime",
          "type": "uint256"
        },
        {
          "indexed": false,
          "internalType": "uint256",
          "name": "endTime",
          "type": "uint256"
        }
      ],
      "name": "RoundCreated",
      "type": "event"
    },
    {
      "inputs": [
        {
          "internalType": "bytes",
          "name": "",
          "type": "bytes"
        }
      ],
      "name": "checkUpkeep",
      "outputs": [
        {
          "internalType": "bool",
          "name": "upkeepNeeded",
          "type": "bool"
        },
        {
          "internalType": "bytes",
          "name": "",
          "type": "bytes"
        }
      ],
      "stateMutability": "view",
      "type": "function"
    },
    {
      "inputs": [],
      "name": "circleCancelled",
      "outputs": [
        {
          "internalType": "bool",
          "name": "",
          "type": "bool"
        }
      ],
      "stateMutability": "view",
      "type": "function"
    },
    {
      "inputs": [],
      "name": "contribute",
      "outputs": [],
      "stateMutability": "payable",
      "type": "function"
    },
    {
      "inputs": [],
      "name": "contributionAmount",
      "outputs": [
        {
          "internalType": "uint256",
          "name": "",
          "type": "uint256"
        }
      ],
      "stateMutability": "view",
      "type": "function"
    },
    {
      "inputs": [],
      "name": "currentRound",
      "outputs": [
        {
          "internalType": "uint256",
          "name": "",
          "type": "uint256"
        }
      ],
      "stateMutability": "view",
      "type": "function"
    },
    {
      "inputs": [],
      "name": "factory",
      "outputs": [
        {
          "internalType": "address",
          "name": "",
          "type": "address"
        }
      ],
      "stateMutability": "view",
      "type": "function"
    },
    {
      "inputs": [],
      "name": "getParticipants",
      "outputs": [
        {
          "components": [
            {
              "internalType": "address",
              "name": "wallet",
              "type": "address"
            }
          ],
          "internalType": "struct SavingsCircle.Participant[]",
          "name": "",
          "type": "tuple[]"
        }
      ],
      "stateMutability": "view",
      "type": "function"
    },
    {
      "inputs": [],
      "name": "getSchedule",
      "outputs": [
        {
          "components": [
            {
              "internalType": "uint256",
              "name": "index",
              "type": "uint256"
            },
            {
              "internalType": "address",
              "name": "beneficiary",
              "type": "address"
            },
            {
              "internalType": "uint256",
              "name": "startTime",
              "type": "uint256"
            },
            {
              "internalType": "uint256",
              "name": "endTime",
              "type": "uint256"
            },
            {
              "internalType": "enum SavingsCircle.RoundStatus",
              "name": "status",
              "type": "uint8"
            }
          ],
          "internalType": "struct SavingsCircle.RoundSchedule[]",
          "name": "schedule",
          "type": "tuple[]"
        }
      ],
      "stateMutability": "view",
      "type": "function"
    },
    {
      "inputs": [
        {
          "internalType": "uint256",
          "name": "",
          "type": "uint256"
        },
        {
          "internalType": "address",
          "name": "",
          "type": "address"
        }
      ],
      "name": "hasContributed",
      "outputs": [
        {
          "internalType": "bool",
          "name": "",
          "type": "bool"
        }
      ],
      "stateMutability": "view",
      "type": "function"
    },
    {
      "inputs": [
        {
          "internalType": "address",
          "name": "",
          "type": "address"
        }
      ],
      "name": "hasReceived",
      "outputs": [
        {
          "internalType": "bool",
          "name": "",
          "type": "bool"
        }
      ],
      "stateMutability": "view",
      "type": "function"
    },
    {
      "inputs": [],
      "name": "image",
      "outputs": [
        {
          "internalType": "string",
          "name": "",
          "type": "string"
        }
      ],
      "stateMutability": "view",
      "type": "function"
    },
    {
      "inputs": [
        {
          "internalType": "address",
          "name": "",
          "type": "address"
        }
      ],
      "name": "insuranceBalance",
      "outputs": [
        {
          "internalType": "uint256",
          "name": "",
          "type": "uint256"
        }
      ],
      "stateMutability": "view",
      "type": "function"
    },
    {
      "inputs": [],
      "name": "insuranceDeposit",
      "outputs": [
        {
          "internalType": "uint256",
          "name": "",
          "type": "uint256"
        }
      ],
      "stateMutability": "view",
      "type": "function"
    },
    {
      "inputs": [
        {
          "internalType": "address",
          "name": "",
          "type": "address"
        }
      ],
      "name": "isParticipant",
      "outputs": [
        {
          "internalType": "bool",
          "name": "",
          "type": "bool"
        }
      ],
      "stateMutability": "view",
      "type": "function"
    },
    {
      "inputs": [],
      "name": "joinCircle",
      "outputs": [],
      "stateMutability": "payable",
      "type": "function"
    },
    {
      "inputs": [],
      "name": "name",
      "outputs": [
        {
          "internalType": "string",
          "name": "",
          "type": "string"
        }
      ],
      "stateMutability": "view",
      "type": "function"
    },
    {
      "inputs": [],
      "name": "owner",
      "outputs": [
        {
          "internalType": "address",
          "name": "",
          "type": "address"
        }
      ],
      "stateMutability": "view",
      "type": "function"
    },
    {
      "inputs": [
        {
          "internalType": "uint256",
          "name": "",
          "type": "uint256"
        }
      ],
      "name": "participants",
      "outputs": [
        {
          "internalType": "address",
          "name": "wallet",
          "type": "address"
        }
      ],
      "stateMutability": "view",
      "type": "function"
    },
    {
      "inputs": [
        {
          "internalType": "bytes",
          "name": "",
          "type": "bytes"
        }
      ],
      "name": "performUpkeep",
      "outputs": [],
      "stateMutability": "nonpayable",
      "type": "function"
    },
    {
      "inputs": [],
      "name": "renounceOwnership",
      "outputs": [],
      "stateMutability": "nonpayable",
      "type": "function"
    },
    {
      "inputs": [],
      "name": "roundDuration",
      "outputs": [
        {
          "internalType": "uint256",
          "name": "",
          "type": "uint256"
        }
      ],
      "stateMutability": "view",
      "type": "function"
    },
    {
      "inputs": [
        {
          "internalType": "uint256",
          "name": "",
          "type": "uint256"
        }
      ],
      "name": "rounds",
      "outputs": [
        {
          "internalType": "uint256",
          "name": "index",
          "type": "uint256"
        },
        {
          "internalType": "uint256",
          "name": "totalCollected",
          "type": "uint256"
        },
        {
          "internalType": "address",
          "name": "beneficiary",
          "type": "address"
        },
        {
          "internalType": "enum SavingsCircle.RoundStatus",
          "name": "status",
          "type": "uint8"
        },
        {
          "internalType": "uint256",
          "name": "startTime",
          "type": "uint256"
        },
        {
          "internalType": "uint256",
          "name": "endTime",
          "type": "uint256"
        }
      ],
      "stateMutability": "view",
      "type": "function"
    },
    {
      "inputs": [],
      "name": "totalParticipants",
      "outputs": [
        {
          "internalType": "uint256",
          "name": "",
          "type": "uint256"
        }
      ],
      "stateMutability": "view",
      "type": "function"
    },
    {
      "inputs": [
        {
          "internalType": "address",
          "name": "newOwner",
          "type": "address"
        }
      ],
      "name": "transferOwnership",
      "outputs": [],
      "stateMutability": "nonpayable",
      "type": "function"
    },
    {
      "inputs": [
        {
          "internalType": "address",
          "name": "",
          "type": "address"
        }
      ],
      "name": "wasCompliant",
      "outputs": [
        {
          "internalType": "bool",
          "name": "",
          "type": "bool"
        }
      ],
      "stateMutability": "view",
      "type": "function"
    }
  ],
  "bytecode": "0x60806040526009805460ff191690553480156200001b57600080fd5b5060405162002464380380620024648339810160408190526200003e91620003ba565b33806200006657604051631e4fbdf760e01b8152600060048201526024015b60405180910390fd5b6200007181620002a5565b50600180556001600160a01b038116620000c05760405162461bcd60e51b815260206004820152600f60248201526e496e76616c696420666163746f727960881b60448201526064016200005d565b6000875111620001035760405162461bcd60e51b815260206004820152600d60248201526c13985b59481c995c5d5a5c9959609a1b60448201526064016200005d565b60008511620001555760405162461bcd60e51b815260206004820152601460248201527f496e76616c696420636f6e747269627574696f6e00000000000000000000000060448201526064016200005d565b6002841015620001a85760405162461bcd60e51b815260206004820152601960248201527f4174206c656173742074776f207061727469636970616e74730000000000000060448201526064016200005d565b60008311620001ed5760405162461bcd60e51b815260206004820152601060248201526f24b73b30b634b210323ab930ba34b7b760811b60448201526064016200005d565b848214620002485760405162461bcd60e51b815260206004820152602160248201527f496e737572616e6365206d75737420657175616c20636f6e747269627574696f6044820152603760f91b60648201526084016200005d565b6002620002568882620004fa565b506003620002658782620004fa565b50600480546001600160a01b0319166001600160a01b0392909216919091179055600793909355600691909155600855600f5550506000600555620005c6565b600080546001600160a01b038381166001600160a01b0319831681178455604051919092169283917f8be0079c531659141344cd1fd0a4f28419497f9722a3daafe3b4186f6b6457e09190a35050565b634e487b7160e01b600052604160045260246000fd5b600082601f8301126200031d57600080fd5b81516001600160401b03808211156200033a576200033a620002f5565b604051601f8301601f19908116603f01168101908282118183101715620003655762000365620002f5565b816040528381526020925086838588010111156200038257600080fd5b600091505b83821015620003a6578582018301518183018401529082019062000387565b600093810190920192909252949350505050565b600080600080600080600060e0888a031215620003d657600080fd5b87516001600160401b0380821115620003ee57600080fd5b620003fc8b838c016200030b565b985060208a01519150808211156200041357600080fd5b50620004228a828b016200030b565b96505060408801519450606088015193506080880151925060a0880151915060c088015160018060a01b03811681146200045b57600080fd5b8091505092959891949750929550565b600181811c908216806200048057607f821691505b602082108103620004a157634e487b7160e01b600052602260045260246000fd5b50919050565b601f821115620004f557600081815260208120601f850160051c81016020861015620004d05750805b601f850160051c820191505b81811015620004f157828155600101620004dc565b5050505b505050565b81516001600160401b03811115620005165762000516620002f5565b6200052e816200052784546200046b565b84620004a7565b602080601f8311600181146200056657600084156200054d5750858301515b600019600386901b1c1916600185901b178555620004f1565b600085815260208120601f198616915b82811015620005975788860151825594840194600190910190840162000576565b5085821015620005b65787850151600019600388901b60f8161c191681555b5050505050600190811b01905550565b611e8e80620005d66000396000f3fe6080604052600436106101665760003560e01c80638c65c81f116100d1578063c45a01551161008a578063e6ba3bff11610064578063e6ba3bff14610477578063f2fde38b1461047f578063f3ccaac01461049f578063f7cb789a146104b457600080fd5b8063c45a015514610439578063d7bb99ba14610459578063e5ce6f2e1461046157600080fd5b80638c65c81f146103385780638da5cb5b1461036a578063929066f514610388578063a26dbf26146103b8578063a62e2d80146103ce578063b5b96ae0146103fe57600080fd5b80635aa68ac0116101235780635aa68ac0146102775780635fa0b65f1461029957806367327ecc146102af5780636e04ff0d146102df578063715018a61461030d5780638a19c8bc1461032257600080fd5b806306fdde031461016b5780631cfa4e821461019657806323407fe5146101d157806326fadbe2146101fb57806335c1d3491461021d5780634585e33b14610255575b600080fd5b34801561017757600080fd5b506101806104ca565b60405161018d9190611aec565b60405180910390f35b3480156101a257600080fd5b506101c36101b1366004611b22565b60106020526000908152604090205481565b60405190815260200161018d565b3480156101dd57600080fd5b506009546101eb9060ff1681565b604051901515815260200161018d565b34801561020757600080fd5b50610210610558565b60405161018d9190611b75565b34801561022957600080fd5b5061023d610238366004611bf8565b6106fb565b6040516001600160a01b03909116815260200161018d565b34801561026157600080fd5b50610275610270366004611c11565b610725565b005b34801561028357600080fd5b5061028c610792565b60405161018d9190611c83565b3480156102a557600080fd5b506101c360075481565b3480156102bb57600080fd5b506101eb6102ca366004611b22565b600c6020526000908152604090205460ff1681565b3480156102eb57600080fd5b506102ff6102fa366004611c11565b6107f9565b60405161018d929190611cd1565b34801561031957600080fd5b506102756108a5565b34801561032e57600080fd5b506101c360055481565b34801561034457600080fd5b50610358610353366004611bf8565b6108b9565b60405161018d96959493929190611cf4565b34801561037657600080fd5b506000546001600160a01b031661023d565b34801561039457600080fd5b506101eb6103a3366004611b22565b600b6020526000908152604090205460ff1681565b3480156103c457600080fd5b506101c360065481565b3480156103da57600080fd5b506101eb6103e9366004611b22565b60116020526000908152604090205460ff1681565b34801561040a57600080fd5b506101eb610419366004611d32565b600d60209081526000928352604080842090915290825290205460ff1681565b34801561044557600080fd5b5060045461023d906001600160a01b031681565b61027561090f565b34801561046d57600080fd5b506101c3600f5481565b610275610c5a565b34801561048b57600080fd5b5061027561049a366004611b22565b61107f565b3480156104ab57600080fd5b506101806110bd565b3480156104c057600080fd5b506101c360085481565b600280546104d790611d5e565b80601f016020809104026020016040519081016040528092919081815260200182805461050390611d5e565b80156105505780601f1061052557610100808354040283529160200191610550565b820191906000526020600020905b81548152906001019060200180831161053357829003601f168201915b505050505081565b600e5460609067ffffffffffffffff81111561057657610576611d98565b6040519080825280602002602001820160405280156105af57816020015b61059c611a5e565b8152602001906001900390816105945790505b50905060005b600e548110156106f7576040518060a00160405280600e83815481106105dd576105dd611dae565b9060005260206000209060050201600001548152602001600e838154811061060757610607611dae565b6000918252602091829020600260059092020101546001600160a01b03168252600e805492909101918490811061064057610640611dae565b9060005260206000209060050201600301548152602001600e838154811061066a5761066a611dae565b9060005260206000209060050201600401548152602001600e838154811061069457610694611dae565b906000526020600020906005020160020160149054906101000a900460ff1660048111156106c4576106c4611b3d565b8152508282815181106106d9576106d9611dae565b602002602001018190525080806106ef90611dda565b9150506105b5565b5090565b600a818154811061070b57600080fd5b6000918252602090912001546001600160a01b0316905081565b6000600e6005548154811061073c5761073c611dae565b60009182526020909120600590910201905060016002820154600160a01b900460ff16600481111561077057610770611b3d565b1480156107805750806004015442115b1561078d5761078d6110ca565b505050565b6060600a805480602002602001604051908101604052809291908181526020016000905b828210156107f057600084815260209081902060408051808401909152908401546001600160a01b031681528252600190920191016107b6565b50505050905090565b600e546000906060901580610810575060095460ff165b1561082d575050604080516020810190915260008082529061089e565b6000600e6005548154811061084457610844611dae565b600091825260208220600590910201915060016002830154600160a01b900460ff16600481111561087757610877611b3d565b1480156108875750816004015442115b604080516020810190915260008152909450925050505b9250929050565b6108ad6113e1565b6108b7600061140e565b565b600e81815481106108c957600080fd5b60009182526020909120600590910201805460018201546002830154600384015460049094015492945090926001600160a01b03821692600160a01b90920460ff169186565b61091761145e565b60095460ff16156109625760405162461bcd60e51b815260206004820152601060248201526f10da5c98db194818d85b98d95b1b195960821b60448201526064015b60405180910390fd5b600e546109a35760405162461bcd60e51b815260206004820152600f60248201526e139bc81858dd1a5d99481c9bdd5b99608a1b6044820152606401610959565b6000600e600554815481106109ba576109ba611dae565b906000526020600020906005020190508060040154421180156109fc575060016002820154600160a01b900460ff1660048111156109fa576109fa611b3d565b145b15610a5157610a096110ca565b60405162461bcd60e51b815260206004820181905260248201527f526f756e642065787069726564202d20726566756e64207472696767657265646044820152606401610959565b60016002820154600160a01b900460ff166004811115610a7357610a73611b3d565b14610ab35760405162461bcd60e51b815260206004820152601060248201526f526f756e64206e6f742061637469766560801b6044820152606401610959565b336000908152600b602052604090205460ff16610b065760405162461bcd60e51b8152602060048201526011602482015270139bdd0818481c185c9d1a58da5c185b9d607a1b6044820152606401610959565b6005546000908152600d6020908152604080832033845290915290205460ff1615610b695760405162461bcd60e51b8152602060048201526013602482015272105b1c9958591e4818dbdb9d1c9a589d5d1959606a1b6044820152606401610959565b6007543414610bad5760405162461bcd60e51b815260206004820152601060248201526f125b98dbdc9c9958dd08185b5bdd5b9d60821b6044820152606401610959565b34816001016000828254610bc19190611df3565b90915550506005546000908152600d602090815260408083203380855290835292819020805460ff19166001179055513481527f1bb460ccaaf70fbacfec17a376f8acbd278c1405590ffcc8ebe4b88daf4f64ad910160405180910390a2600a54610c2e90600190611e0c565b600754610c3b9190611e1f565b816001015410610c5057610c50600554611488565b506108b760018055565b610c6261145e565b336000908152600b602052604090205460ff1615610cb35760405162461bcd60e51b815260206004820152600e60248201526d105b1c9958591e481a9bda5b995960921b6044820152606401610959565b60095460ff1615610cf95760405162461bcd60e51b815260206004820152601060248201526f10da5c98db194818d85b98d95b1b195960821b6044820152606401610959565b600654600a5410610d3a5760405162461bcd60e51b815260206004820152600b60248201526a10da5c98db1948199d5b1b60aa1b6044820152606401610959565b600f543414610d8b5760405162461bcd60e51b815260206004820152601a60248201527f496e737572616e6365206465706f7369742072657175697265640000000000006044820152606401610959565b604080516020808201835233808352600a805460018082018355600092835294517fc65a7bb8d6351c1cf70c95a316cc6a92839c986682d98bc35f958f4883f9d2a890910180546001600160a01b0319166001600160a01b03928316179055828252600b8452858220805460ff199081168717909155601085528683203490556011909452908590208054909316909317909155600480549351637705865160e01b815290810191909152911690637705865190602401600060405180830381600087803b158015610e5c57600080fd5b505af1158015610e70573d6000803e3d6000fd5b50506040513392507f6cd71e167cab47cb2ccb763aada102691b585b848adb6395f1da4ac187b9214a9150600090a2600654600a54148015610eb25750600e54155b15611076576000610ec16115e0565b6001600160a01b0381166000818152600c60209081526040808320805460ff19166001908117909155815160c0810183528481529283018490529082019390935292935091906060820190815260200142815260200160085442610f259190611df3565b9052600e8054600181018255600091909152815160059091027fbb7b4a454dc3493923482f07822329ed19e8244eff582cc204f8554c3620c3fd810191825560208301517fbb7b4a454dc3493923482f07822329ed19e8244eff582cc204f8554c3620c3fe82015560408301517fbb7b4a454dc3493923482f07822329ed19e8244eff582cc204f8554c3620c3ff90910180546001600160a01b039092166001600160a01b031983168117825560608501519495508594926001600160a81b03191617600160a01b836004811115610fff57610fff611b3d565b02179055506080820151816003015560a082015181600401555050816001600160a01b031681600001517fd6dd0ade89eeb414b7e63b3b71fde3db88b04f032c3d5bce15271008598f64f983608001518460a0015160405161106b929190918252602082015260400190565b60405180910390a350505b6108b760018055565b6110876113e1565b6001600160a01b0381166110b157604051631e4fbdf760e01b815260006004820152602401610959565b6110ba8161140e565b50565b600380546104d790611d5e565b6000600e600554815481106110e1576110e1611dae565b60009182526020909120600590910201905060016002820154600160a01b900460ff16600481111561111557611115611b3d565b1461111d5750565b6000805b600a548110156112b1576000600a828154811061114057611140611dae565b60009182526020808320909101546005548352600d825260408084206001600160a01b039092168085529190925291205490915060ff1661129e576007546001600160a01b0382166000908152601060205260409020541061128e576007546001600160a01b038216600090815260106020526040812080549091906111c7908490611e0c565b90915550506007546001850180546000906111e3908490611df3565b90915550506005546007546040519081527fa2ce1076c4940957a2f2077e202b493dff21bc294a35bdf8b39ad32cf015eedd9060200160405180910390a2600554816001600160a01b03167f9fcddf31e39daf71ccf6621adcb95968554d76d8e2e630132ab974ae6b3549d160075460405161126191815260200190565b60405180910390a36001600160a01b0381166000908152601160205260409020805460ff1916905561129e565b60075461129b9084611df3565b92505b50806112a981611dda565b915050611121565b50806000036112c9576112c5600554611488565b5050565b60028201805460ff60a01b1916600360a01b17905560005b600a54811015611366576000600a828154811061130057611300611dae565b60009182526020808320909101546005548352600d825260408084206001600160a01b039092168085529190925291205490915060ff161561135357600754611353906001600160a01b038316906116f8565b508061135e81611dda565b9150506112e1565b506005546040517fbe39882973eff28580f04c2c5cdc775cd9865cffc8840773d131ab12471c9a6290600090a26009805460ff191660011790556005546040517faeb80c3c2207efc6a93b570b3579380c25ee5d4899f2466e55c010c1830aac77916113d59190815260200190565b60405180910390a15050565b6000546001600160a01b031633146108b75760405163118cdaa760e01b8152336004820152602401610959565b600080546001600160a01b038381166001600160a01b0319831681178455604051919092169283917f8be0079c531659141344cd1fd0a4f28419497f9722a3daafe3b4186f6b6457e09190a35050565b60026001540361148157604051633ee5aeb560e01b815260040160405180910390fd5b6002600155565b6000600e828154811061149d5761149d611dae565b60009182526020909120600590910201905060016002820154600160a01b900460ff1660048111156114d1576114d1611b3d565b146115115760405162461bcd60e51b815260206004820152601060248201526f526f756e64206e6f742061637469766560801b6044820152606401610959565b6001810180546000909155600282018054600160a11b60ff60a01b19821617909155611546906001600160a01b0316826116f8565b60028201546040518281526001600160a01b039091169084907f6e3c6096795c8298a218b2cfb8bde42726ff7c9a3d27b4d3ba41ab7f74feb5fb9060200160405180910390a3600a5460055461159d906001611df3565b10156115d857600580549060006115b383611dda565b919050555060006115c26115e0565b90506115d2818460040154611788565b50505050565b61078d611941565b600a54600e54604080514260208201524491810191909152606081019190915260009182916080016040516020818303038152906040528051906020012060001c61162b9190611e36565b905060005b600a548110156116af57600a80546000919061164c8486611df3565b6116569190611e36565b8154811061166657611666611dae565b60009182526020808320909101546001600160a01b0316808352600c90915260409091205490915060ff1661169c579392505050565b50806116a781611dda565b915050611630565b5060405162461bcd60e51b815260206004820152601c60248201527f4e6f20656c696769626c652062656e6566696369617279206c656674000000006044820152606401610959565b804710156117225760405163cf47918160e01b815247600482015260248101829052604401610959565b600080836001600160a01b03168360405160006040518083038185875af1925050503d8060008114611770576040519150601f19603f3d011682016040523d82523d6000602084013e611775565b606091505b5091509150816115d2576115d281611a36565b6040805160c081018252600e5481526000602082018190526001600160a01b038516928201929092526060810160018152602001838152602001600854846117d09190611df3565b90526001600160a01b038085166000908152600c60209081526040808320805460ff19166001908117909155600e80549182018155909352845160059093027fbb7b4a454dc3493923482f07822329ed19e8244eff582cc204f8554c3620c3fd8101938455918501517fbb7b4a454dc3493923482f07822329ed19e8244eff582cc204f8554c3620c3fe8301558401517fbb7b4a454dc3493923482f07822329ed19e8244eff582cc204f8554c3620c3ff9091018054919093166001600160a01b0319821681178455606085015194955085949293916001600160a81b03191617600160a01b8360048111156118c8576118c8611b3d565b02179055506080820151816003015560a082015181600401555050826001600160a01b031681600001517fd6dd0ade89eeb414b7e63b3b71fde3db88b04f032c3d5bce15271008598f64f983608001518460a00151604051611934929190918252602082015260400190565b60405180910390a3505050565b60005b600a548110156110ba576000600a828154811061196357611963611dae565b60009182526020808320909101546001600160a01b03168083526010909152604090912054909150158015906119b157506001600160a01b03811660009081526011602052604090205460ff165b15611a23576001600160a01b03811660008181526010602052604081208054919055906119de90826116f8565b816001600160a01b03167f3123f0e0472bc9c8f1d137578255c05a4b32a7c9ab5f053a15df3eed8b5181b982604051611a1991815260200190565b60405180910390a2505b5080611a2e81611dda565b915050611944565b805115611a4557805160208201fd5b60405163d6bda27560e01b815260040160405180910390fd5b6040518060a001604052806000815260200160006001600160a01b03168152602001600081526020016000815260200160006004811115611aa157611aa1611b3d565b905290565b6000815180845260005b81811015611acc57602081850181015186830182015201611ab0565b506000602082860101526020601f19601f83011685010191505092915050565b602081526000611aff6020830184611aa6565b9392505050565b80356001600160a01b0381168114611b1d57600080fd5b919050565b600060208284031215611b3457600080fd5b611aff82611b06565b634e487b7160e01b600052602160045260246000fd5b60058110611b7157634e487b7160e01b600052602160045260246000fd5b9052565b602080825282518282018190526000919060409081850190868401855b82811015611beb57815180518552868101516001600160a01b03168786015285810151868601526060808201519086015260809081015190611bd681870183611b53565b505060a0939093019290850190600101611b92565b5091979650505050505050565b600060208284031215611c0a57600080fd5b5035919050565b60008060208385031215611c2457600080fd5b823567ffffffffffffffff80821115611c3c57600080fd5b818501915085601f830112611c5057600080fd5b813581811115611c5f57600080fd5b866020828501011115611c7157600080fd5b60209290920196919550909350505050565b6020808252825182820181905260009190848201906040850190845b81811015611cc5578351516001600160a01b031683529284019291840191600101611c9f565b50909695505050505050565b8215158152604060208201526000611cec6040830184611aa6565b949350505050565b868152602081018690526001600160a01b038516604082015260c08101611d1e6060830186611b53565b608082019390935260a00152949350505050565b60008060408385031215611d4557600080fd5b82359150611d5560208401611b06565b90509250929050565b600181811c90821680611d7257607f821691505b602082108103611d9257634e487b7160e01b600052602260045260246000fd5b50919050565b634e487b7160e01b600052604160045260246000fd5b634e487b7160e01b600052603260045260246000fd5b634e487b7160e01b600052601160045260246000fd5b600060018201611dec57611dec611dc4565b5060010190565b80820180821115611e0657611e06611dc4565b92915050565b81810381811115611e0657611e06611dc4565b8082028115828204841417611e0657611e06611dc4565b600082611e5357634e487b7160e01b600052601260045260246000fd5b50069056fea2646970667358221220f9d2054351b65bf8db8062484b7b38a9b2ff47681633ed8ae72dfaacd96bc66164736f6c63430008140033",
  "linkReferences": {},
  "deployedLinkReferences": {}
}