{
  "_format": "hh-sol-artifact-1",
  "contractName": "SavingsCircleFactory",
  "sourceName": "contracts/SavingsCircleFactory.sol",
  "abi": [
    {
      "inputs": [],
      "stateMutability": "nonpayable",
      "type": "constructor"
    },
    {
      "anonymous": false,
      "inputs": [
        {
          "indexed": true,
          "internalType": "address",
          "name": "creator",
          "type": "address"
        },
        {
          "indexed": true,
          "internalType": "address",
          "name": "circleAddress",
          "type": "address"
        },
        {
          "indexed": false,
          "internalType": "string",
          "name": "name",
          "type": "string"
        },
        {
          "indexed": false,
          "internalType": "string",
          "name": "image",
          "type": "string"
        },
        {
          "indexed": false,
          "internalType": "uint256",
          "name": "contributionAmount",
          "type": "uint256"
        },
        {
          "indexed": false,
          "internalType": "uint256",
          "name": "maxParticipants",
          "type": "uint256"
        },
        {
          "indexed": false,
          "internalType": "uint256",
          "name": "roundDuration",
          "type": "uint256"
        }
      ],
      "name": "CircleCreated",
      "type": "event"
    },
    {
      "anonymous": false,
      "inputs": [
        {
          "indexed": true,
          "internalType": "address",
          "name": "user",
          "type": "address"
        },
        {
          "indexed": true,
          "internalType": "address",
          "name": "circleAddress",
          "type": "address"
        }
      ],
      "name": "UserJoinedCircle",
      "type": "event"
    },
    {
      "inputs": [
        {
          "internalType": "uint256",
          "name": "",
          "type": "uint256"
        }
      ],
      "name": "allCircles",
      "outputs": [
        {
          "internalType": "address",
          "name": "",
          "type": "address"
        }
      ],
      "stateMutability": "view",
      "type": "function"
    },
    {
      "inputs": [
        {
          "internalType": "string",
          "name": "_name",
          "type": "string"
        },
        {
          "internalType": "string",
          "name": "_image",
          "type": "string"
        },
        {
          "internalType": "uint256",
          "name": "_contributionAmount",
          "type": "uint256"
        },
        {
          "internalType": "uint256",
          "name": "_maxParticipants",
          "type": "uint256"
        },
        {
          "internalType": "uint256",
          "name": "_roundDuration",
          "type": "uint256"
        },
        {
          "internalType": "uint256",
          "name": "_insuranceDeposit",
          "type": "uint256"
        }
      ],
      "name": "createSavingsCircle",
      "outputs": [
        {
          "internalType": "address",
          "name": "circleAddress",
          "type": "address"
        }
      ],
      "stateMutability": "nonpayable",
      "type": "function"
    },
    {
      "inputs": [],
      "name": "getAllCircles",
      "outputs": [
        {
          "internalType": "address[]",
          "name": "",
          "type": "address[]"
        }
      ],
      "stateMutability": "view",
      "type": "function"
    },
    {
      "inputs": [
        {
          "internalType": "address",
          "name": "user",
          "type": "address"
        }
      ],
      "name": "getCirclesByParticipant",
      "outputs": [
        {
          "internalType": "address[]",
          "name": "",
          "type": "address[]"
        }
      ],
      "stateMutability": "view",
      "type": "function"
    },
    {
      "inputs": [
        {
          "internalType": "address",
          "name": "user",
          "type": "address"
        }
      ],
      "name": "getCirclesByUser",
      "outputs": [
        {
          "internalType": "address[]",
          "name": "",
          "type": "address[]"
        }
      ],
      "stateMutability": "view",
      "type": "function"
    },
    {
      "inputs": [],
      "name": "getTotalCircles",
      "outputs": [
        {
          "internalType": "uint256",
          "name": "",
          "type": "uint256"
        }
      ],
      "stateMutability": "view",
      "type": "function"
    },
    {
      "inputs": [],
      "name": "owner",
      "outputs": [
        {
          "internalType": "address",
          "name": "",
          "type": "address"
        }
      ],
      "stateMutability": "view",
      "type": "function"
    },
    {
      "inputs": [
        {
          "internalType": "address",
          "name": "",
          "type": "address"
        },
        {
          "internalType": "uint256",
          "name": "",
          "type": "uint256"
        }
      ],
      "name": "participantCircles",
      "outputs": [
        {
          "internalType": "address",
          "name": "",
          "type": "address"
        }
      ],
      "stateMutability": "view",
      "type": "function"
    },
    {
      "inputs": [
        {
          "internalType": "address",
          "name": "_user",
          "type": "address"
        }
      ],
      "name": "registerParticipation",
      "outputs": [],
      "stateMutability": "nonpayable",
      "type": "function"
    },
    {
      "inputs": [
        {
          "internalType": "address",
          "name": "",
          "type": "address"
        },
        {
          "internalType": "uint256",
          "name": "",
          "type": "uint256"
        }
      ],
      "name": "userCircles",
      "outputs": [
        {
          "internalType": "address",
          "name": "",
          "type": "address"
        }
      ],
      "stateMutability": "view",
      "type": "function"
    }
  ],
  "bytecode": "0x608060405234801561001057600080fd5b50600380546001600160a01b0319163317905561311e806100326000396000f3fe60806040523480156200001157600080fd5b5060043610620000ab5760003560e01c80638da5cb5b116200006e5780638da5cb5b146200014c578063b93053531462000160578063dcc3bfae146200016a578063e1908c6e1462000181578063f1141d30146200019857600080fd5b80630950dc1f14620000b05780631235307614620000e457806315cdfeea14620000f657806377058651146200010d57806383f8fa671462000126575b600080fd5b620000c7620000c1366004620005d4565b620001af565b6040516001600160a01b0390911681526020015b60405180910390f35b600054604051908152602001620000db565b620000c762000107366004620005d4565b620001e8565b620001246200011e36600462000601565b62000205565b005b6200013d6200013736600462000601565b620002c1565b604051620000db919062000626565b600354620000c7906001600160a01b031681565b6200013d62000339565b6200013d6200017b36600462000601565b6200039d565b620000c76200019236600462000675565b62000413565b620000c7620001a93660046200073a565b6200043e565b60016020528160005260406000208181548110620001cc57600080fd5b6000918252602090912001546001600160a01b03169150829050565b60026020528160005260406000208181548110620001cc57600080fd5b6001600160a01b038116620002575760405162461bcd60e51b8152602060048201526014602482015273496e76616c69642075736572206164647265737360601b604482015260640160405180910390fd5b6001600160a01b0381166000818152600260209081526040808320805460018101825590845291832090910180546001600160a01b0319163390811790915590519092917f0a16f8f61a00c1ce96d0596bf9b12dccea7a87622ae7d3e321a377f15bdc40c291a350565b6001600160a01b0381166000908152600160209081526040918290208054835181840281018401909452808452606093928301828280156200032d57602002820191906000526020600020905b81546001600160a01b031681526001909101906020018083116200030e575b50505050509050919050565b606060008054806020026020016040519081016040528092919081815260200182805480156200039357602002820191906000526020600020905b81546001600160a01b0316815260019091019060200180831162000374575b5050505050905090565b6001600160a01b0381166000908152600260209081526040918290208054835181840281018401909452808452606093928301828280156200032d576020028201919060005260206000209081546001600160a01b031681526001909101906020018083116200030e5750505050509050919050565b600081815481106200042457600080fd5b6000918252602090912001546001600160a01b0316905081565b600080878787878787306040516200045690620005a9565b62000468979695949392919062000810565b604051809103906000f08015801562000485573d6000803e3d6000fd5b5060405163f2fde38b60e01b81523360048201529091506001600160a01b0382169063f2fde38b90602401600060405180830381600087803b158015620004cb57600080fd5b505af1158015620004e0573d6000803e3d6000fd5b505060008054600181810183557f290decd9548b62a8d60345a988386fc84ba6bc95484008f6362f93160ef3e56390910180546001600160a01b0387166001600160a01b03199182168117909255338085526020848152604080872080549687018155875295209093018054909116821790559151949550859491935091507f9951dd348ff5e542dc2d32073789e6a637321c4a520b0cf063dcd65bdccb1cac9062000596908c908c908c908c908c906200086d565b60405180910390a3509695505050505050565b61283480620008b583390190565b80356001600160a01b0381168114620005cf57600080fd5b919050565b60008060408385031215620005e857600080fd5b620005f383620005b7565b946020939093013593505050565b6000602082840312156200061457600080fd5b6200061f82620005b7565b9392505050565b6020808252825182820181905260009190848201906040850190845b81811015620006695783516001600160a01b03168352928401929184019160010162000642565b50909695505050505050565b6000602082840312156200068857600080fd5b5035919050565b634e487b7160e01b600052604160045260246000fd5b600082601f830112620006b757600080fd5b813567ffffffffffffffff80821115620006d557620006d56200068f565b604051601f8301601f19908116603f011681019082821181831017156200070057620007006200068f565b816040528381528660208588010111156200071a57600080fd5b836020870160208301376000602085830101528094505050505092915050565b60008060008060008060c087890312156200075457600080fd5b863567ffffffffffffffff808211156200076d57600080fd5b6200077b8a838b01620006a5565b975060208901359150808211156200079257600080fd5b50620007a189828a01620006a5565b96999698505050506040850135946060810135946080820135945060a09091013592509050565b6000815180845260005b81811015620007f057602081850181015186830182015201620007d2565b506000602082860101526020601f19601f83011685010191505092915050565b60e0815260006200082560e083018a620007c8565b828103602084015262000839818a620007c8565b604084019890985250506060810194909452608084019290925260a08301526001600160a01b031660c09091015292915050565b60a0815260006200088260a0830188620007c8565b8281036020840152620008968188620007c8565b6040840196909652505060608101929092526080909101529291505056fe60806040526009805460ff191690553480156200001b57600080fd5b5060405162002834380380620028348339810160408190526200003e91620003ba565b33806200006657604051631e4fbdf760e01b8152600060048201526024015b60405180910390fd5b6200007181620002a5565b50600180556001600160a01b038116620000c05760405162461bcd60e51b815260206004820152600f60248201526e496e76616c696420666163746f727960881b60448201526064016200005d565b6000875111620001035760405162461bcd60e51b815260206004820152600d60248201526c13985b59481c995c5d5a5c9959609a1b60448201526064016200005d565b60008511620001555760405162461bcd60e51b815260206004820152601460248201527f496e76616c696420636f6e747269627574696f6e00000000000000000000000060448201526064016200005d565b6002841015620001a85760405162461bcd60e51b815260206004820152601960248201527f4174206c656173742074776f207061727469636970616e74730000000000000060448201526064016200005d565b60008311620001ed5760405162461bcd60e51b815260206004820152601060248201526f24b73b30b634b210323ab930ba34b7b760811b60448201526064016200005d565b848214620002485760405162461bcd60e51b815260206004820152602160248201527f496e737572616e6365206d75737420657175616c20636f6e747269627574696f6044820152603760f91b60648201526084016200005d565b6002620002568882620004fa565b506003620002658782620004fa565b50600480546001600160a01b0319166001600160a01b0392909216919091179055600793909355600691909155600855600f5550506000600555620005c6565b600080546001600160a01b038381166001600160a01b0319831681178455604051919092169283917f8be0079c531659141344cd1fd0a4f28419497f9722a3daafe3b4186f6b6457e09190a35050565b634e487b7160e01b600052604160045260246000fd5b600082601f8301126200031d57600080fd5b81516001600160401b03808211156200033a576200033a620002f5565b604051601f8301601f19908116603f01168101908282118183101715620003655762000365620002f5565b816040528381526020925086838588010111156200038257600080fd5b600091505b83821015620003a6578582018301518183018401529082019062000387565b600093810190920192909252949350505050565b600080600080600080600060e0888a031215620003d657600080fd5b87516001600160401b0380821115620003ee57600080fd5b620003fc8b838c016200030b565b985060208a01519150808211156200041357600080fd5b50620004228a828b016200030b565b96505060408801519450606088015193506080880151925060a0880151915060c088015160018060a01b03811681146200045b57600080fd5b8091505092959891949750929550565b600181811c908216806200048057607f821691505b602082108103620004a157634e487b7160e01b600052602260045260246000fd5b50919050565b601f821115620004f557600081815260208120601f850160051c81016020861015620004d05750805b601f850160051c820191505b81811015620004f157828155600101620004dc565b5050505b505050565b81516001600160401b03811115620005165762000516620002f5565b6200052e816200052784546200046b565b84620004a7565b602080601f8311600181146200056657600084156200054d5750858301515b600019600386901b1c1916600185901b178555620004f1565b600085815260208120601f198616915b82811015620005975788860151825594840194600190910190840162000576565b5085821015620005b65787850151600019600388901b60f8161c191681555b5050505050600190811b01905550565b61225e80620005d66000396000f3fe6080604052600436106101665760003560e01c80638a19c8bc116100d1578063b5b96ae01161008a578063e5ce6f2e11610064578063e5ce6f2e1461047e578063f2fde38b14610494578063f3ccaac0146104b4578063f7cb789a146104c957600080fd5b8063b5b96ae01461041b578063c45a015514610456578063d7bb99ba1461047657600080fd5b80638a19c8bc1461032b5780638c65c81f146103415780638da5cb5b14610373578063929066f5146103a5578063a26dbf26146103d5578063a62e2d80146103eb57600080fd5b80634585e33b116101235780634585e33b146102605780635aa68ac0146102805780635fa0b65f146102a257806367327ecc146102b85780636e04ff0d146102e8578063715018a61461031657600080fd5b806306fdde031461016b5780631cfa4e821461019657806323407fe5146101d157806326fadbe2146101fb57806333166c6a1461021d57806335c1d34914610232575b600080fd5b34801561017757600080fd5b506101806104df565b60405161018d9190611d1a565b60405180910390f35b3480156101a257600080fd5b506101c36101b1366004611d50565b60106020526000908152604090205481565b60405190815260200161018d565b3480156101dd57600080fd5b506009546101eb9060ff1681565b604051901515815260200161018d565b34801561020757600080fd5b5061021061056d565b60405161018d9190611da3565b61023061022b366004611e68565b610710565b005b34801561023e57600080fd5b5061025261024d366004611eaa565b610be9565b60405161018d929190611ec3565b34801561026c57600080fd5b5061023061027b366004611e68565b610cab565b34801561028c57600080fd5b50610295610d18565b60405161018d9190611eef565b3480156102ae57600080fd5b506101c360075481565b3480156102c457600080fd5b506101eb6102d3366004611d50565b600c6020526000908152604090205460ff1681565b3480156102f457600080fd5b50610308610303366004611e68565b610e1e565b60405161018d929190611f6c565b34801561032257600080fd5b50610230610eca565b34801561033757600080fd5b506101c360055481565b34801561034d57600080fd5b5061036161035c366004611eaa565b610ede565b60405161018d96959493929190611f87565b34801561037f57600080fd5b506000546001600160a01b03165b6040516001600160a01b03909116815260200161018d565b3480156103b157600080fd5b506101eb6103c0366004611d50565b600b6020526000908152604090205460ff1681565b3480156103e157600080fd5b506101c360065481565b3480156103f757600080fd5b506101eb610406366004611d50565b60116020526000908152604090205460ff1681565b34801561042757600080fd5b506101eb610436366004611fc5565b600d60209081526000928352604080842090915290825290205460ff1681565b34801561046257600080fd5b5060045461038d906001600160a01b031681565b610230610f34565b34801561048a57600080fd5b506101c3600f5481565b3480156104a057600080fd5b506102306104af366004611d50565b61126e565b3480156104c057600080fd5b506101806112ac565b3480156104d557600080fd5b506101c360085481565b600280546104ec90611ff1565b80601f016020809104026020016040519081016040528092919081815260200182805461051890611ff1565b80156105655780601f1061053a57610100808354040283529160200191610565565b820191906000526020600020905b81548152906001019060200180831161054857829003601f168201915b505050505081565b600e5460609067ffffffffffffffff81111561058b5761058b61202b565b6040519080825280602002602001820160405280156105c457816020015b6105b1611c8c565b8152602001906001900390816105a95790505b50905060005b600e5481101561070c576040518060a00160405280600e83815481106105f2576105f2612041565b9060005260206000209060050201600001548152602001600e838154811061061c5761061c612041565b6000918252602091829020600260059092020101546001600160a01b03168252600e805492909101918490811061065557610655612041565b9060005260206000209060050201600301548152602001600e838154811061067f5761067f612041565b9060005260206000209060050201600401548152602001600e83815481106106a9576106a9612041565b906000526020600020906005020160020160149054906101000a900460ff1660048111156106d9576106d9611d6b565b8152508282815181106106ee576106ee612041565b602002602001018190525080806107049061206d565b9150506105ca565b5090565b6107186112b9565b336000908152600b602052604090205460ff161561076e5760405162461bcd60e51b815260206004820152600e60248201526d105b1c9958591e481a9bda5b995960921b60448201526064015b60405180910390fd5b60095460ff16156107b45760405162461bcd60e51b815260206004820152601060248201526f10da5c98db194818d85b98d95b1b195960821b6044820152606401610765565b600654600a54106107f55760405162461bcd60e51b815260206004820152600b60248201526a10da5c98db1948199d5b1b60aa1b6044820152606401610765565b806108325760405162461bcd60e51b815260206004820152600d60248201526c13985b59481c995c5d5a5c9959609a1b6044820152606401610765565b600f5434146108835760405162461bcd60e51b815260206004820152601a60248201527f496e737572616e6365206465706f7369742072657175697265640000000000006044820152606401610765565b600a6040518060400160405280336001600160a01b0316815260200184848080601f0160208091040260200160405190810160405280939291908181526020018383808284376000920182905250939094525050835460018082018655948252602091829020845160029092020180546001600160a01b0319166001600160a01b039092169190911781559083015192939092908301915061092590826120d4565b5050336000818152600b602090815260408083208054600160ff1991821681179092556010845282852034905560119093529281902080549092169092179055600480549151637705865160e01b8152908101929092526001600160a01b03169150637705865190602401600060405180830381600087803b1580156109aa57600080fd5b505af11580156109be573d6000803e3d6000fd5b50505050336001600160a01b03167fe5b1eced469f0f85354b67d6ef4b36910756d7f6d07ab540d7bf0e198e3aecd583836040516109fd929190612194565b60405180910390a2600654600a54148015610a185750600e54155b15610bdc576000610a276112e3565b6001600160a01b0381166000818152600c60209081526040808320805460ff19166001908117909155815160c0810183528481529283018490529082019390935292935091906060820190815260200142815260200160085442610a8b91906121c3565b9052600e8054600181018255600091909152815160059091027fbb7b4a454dc3493923482f07822329ed19e8244eff582cc204f8554c3620c3fd810191825560208301517fbb7b4a454dc3493923482f07822329ed19e8244eff582cc204f8554c3620c3fe82015560408301517fbb7b4a454dc3493923482f07822329ed19e8244eff582cc204f8554c3620c3ff90910180546001600160a01b039092166001600160a01b031983168117825560608501519495508594926001600160a81b03191617600160a01b836004811115610b6557610b65611d6b565b02179055506080820151816003015560a082015181600401555050816001600160a01b031681600001517fd6dd0ade89eeb414b7e63b3b71fde3db88b04f032c3d5bce15271008598f64f983608001518460a00151604051610bd1929190918252602082015260400190565b60405180910390a350505b610be560018055565b5050565b600a8181548110610bf957600080fd5b6000918252602090912060029091020180546001820180546001600160a01b03909216935090610c2890611ff1565b80601f0160208091040260200160405190810160405280929190818152602001828054610c5490611ff1565b8015610ca15780601f10610c7657610100808354040283529160200191610ca1565b820191906000526020600020905b815481529060010190602001808311610c8457829003601f168201915b5050505050905082565b6000600e60055481548110610cc257610cc2612041565b60009182526020909120600590910201905060016002820154600160a01b900460ff166004811115610cf657610cf6611d6b565b148015610d065750806004015442115b15610d1357610d13611400565b505050565b6060600a805480602002602001604051908101604052809291908181526020016000905b82821015610e15576000848152602090819020604080518082019091526002850290910180546001600160a01b031682526001810180549293919291840191610d8490611ff1565b80601f0160208091040260200160405190810160405280929190818152602001828054610db090611ff1565b8015610dfd5780601f10610dd257610100808354040283529160200191610dfd565b820191906000526020600020905b815481529060010190602001808311610de057829003601f168201915b50505050508152505081526020019060010190610d3c565b50505050905090565b600e546000906060901580610e35575060095460ff165b15610e525750506040805160208101909152600080825290610ec3565b6000600e60055481548110610e6957610e69612041565b600091825260208220600590910201915060016002830154600160a01b900460ff166004811115610e9c57610e9c611d6b565b148015610eac5750816004015442115b604080516020810190915260008152909450925050505b9250929050565b610ed2611736565b610edc6000611763565b565b600e8181548110610eee57600080fd5b60009182526020909120600590910201805460018201546002830154600384015460049094015492945090926001600160a01b03821692600160a01b90920460ff169186565b610f3c6112b9565b60095460ff1615610f825760405162461bcd60e51b815260206004820152601060248201526f10da5c98db194818d85b98d95b1b195960821b6044820152606401610765565b600e54610fc35760405162461bcd60e51b815260206004820152600f60248201526e139bc81858dd1a5d99481c9bdd5b99608a1b6044820152606401610765565b6000600e60055481548110610fda57610fda612041565b9060005260206000209060050201905080600401544211801561101c575060016002820154600160a01b900460ff16600481111561101a5761101a611d6b565b145b1561107157611029611400565b60405162461bcd60e51b815260206004820181905260248201527f526f756e642065787069726564202d20726566756e64207472696767657265646044820152606401610765565b60016002820154600160a01b900460ff16600481111561109357611093611d6b565b146110d35760405162461bcd60e51b815260206004820152601060248201526f526f756e64206e6f742061637469766560801b6044820152606401610765565b336000908152600b602052604090205460ff166111265760405162461bcd60e51b8152602060048201526011602482015270139bdd0818481c185c9d1a58da5c185b9d607a1b6044820152606401610765565b6005546000908152600d6020908152604080832033845290915290205460ff16156111895760405162461bcd60e51b8152602060048201526013602482015272105b1c9958591e4818dbdb9d1c9a589d5d1959606a1b6044820152606401610765565b60075434146111cd5760405162461bcd60e51b815260206004820152601060248201526f125b98dbdc9c9958dd08185b5bdd5b9d60821b6044820152606401610765565b348160010160008282546111e191906121c3565b90915550506005546000908152600d602090815260408083203380855290835292819020805460ff19166001179055513481527f1bb460ccaaf70fbacfec17a376f8acbd278c1405590ffcc8ebe4b88daf4f64ad910160405180910390a2600a5460075461124f91906121dc565b816001015410611264576112646005546117b3565b50610edc60018055565b611276611736565b6001600160a01b0381166112a057604051631e4fbdf760e01b815260006004820152602401610765565b6112a981611763565b50565b600380546104ec90611ff1565b6002600154036112dc57604051633ee5aeb560e01b815260040160405180910390fd5b6002600155565b600a54600e54604080514260208201524491810191909152606081019190915260009182916080016040516020818303038152906040528051906020012060001c61132e91906121f3565b905060005b600a548110156113b757600a80546000919061134f84866121c3565b61135991906121f3565b8154811061136957611369612041565b600091825260208083206002909202909101546001600160a01b0316808352600c90915260409091205490915060ff166113a4579392505050565b50806113af8161206d565b915050611333565b5060405162461bcd60e51b815260206004820152601c60248201527f4e6f20656c696769626c652062656e6566696369617279206c656674000000006044820152606401610765565b6114086112b9565b6000600e6005548154811061141f5761141f612041565b60009182526020909120600590910201905060016002820154600160a01b900460ff16600481111561145357611453611d6b565b1461145e575061172d565b6000805b600a548110156115f7576000600a828154811061148157611481612041565b600091825260208083206002909202909101546005548352600d825260408084206001600160a01b039092168085529190925291205490915060ff166115e4576007546001600160a01b038216600090815260106020526040902054106115d4576007546001600160a01b0382166000908152601060205260408120805490919061150d908490612215565b90915550506007546001850180546000906115299084906121c3565b90915550506005546007546040519081527fa2ce1076c4940957a2f2077e202b493dff21bc294a35bdf8b39ad32cf015eedd9060200160405180910390a2600554816001600160a01b03167f9fcddf31e39daf71ccf6621adcb95968554d76d8e2e630132ab974ae6b3549d16007546040516115a791815260200190565b60405180910390a36001600160a01b0381166000908152601160205260409020805460ff191690556115e4565b6007546115e190846121c3565b92505b50806115ef8161206d565b915050611462565b50806000036116105761160b6005546117b3565b61172a565b60028201805460ff60a01b1916600360a01b17905560005b600a548110156116b2576000600a828154811061164757611647612041565b600091825260208083206002909202909101546005548352600d825260408084206001600160a01b039092168085529190925291205490915060ff161561169f5760075461169f906001600160a01b03831690611913565b50806116aa8161206d565b915050611628565b506005546040517fbe39882973eff28580f04c2c5cdc775cd9865cffc8840773d131ab12471c9a6290600090a26009805460ff191660011790556005546040517faeb80c3c2207efc6a93b570b3579380c25ee5d4899f2466e55c010c1830aac77916117219190815260200190565b60405180910390a15b50505b610edc60018055565b6000546001600160a01b03163314610edc5760405163118cdaa760e01b8152336004820152602401610765565b600080546001600160a01b038381166001600160a01b0319831681178455604051919092169283917f8be0079c531659141344cd1fd0a4f28419497f9722a3daafe3b4186f6b6457e09190a35050565b6117bb6112b9565b6000600e82815481106117d0576117d0612041565b60009182526020909120600590910201905060016002820154600160a01b900460ff16600481111561180457611804611d6b565b146118445760405162461bcd60e51b815260206004820152601060248201526f526f756e64206e6f742061637469766560801b6044820152606401610765565b6001810180546000909155600282018054600160a11b60ff60a01b19821617909155611879906001600160a01b031682611913565b60028201546040518281526001600160a01b039091169084907f6e3c6096795c8298a218b2cfb8bde42726ff7c9a3d27b4d3ba41ab7f74feb5fb9060200160405180910390a3600580549060006118cf8361206d565b9091555050600a5460055410156119005760006118ea6112e3565b90506118fa8184600401546119a9565b50611908565b611908611b62565b50506112a960018055565b8047101561193d5760405163cf47918160e01b815247600482015260248101829052604401610765565b600080836001600160a01b03168360405160006040518083038185875af1925050503d806000811461198b576040519150601f19603f3d011682016040523d82523d6000602084013e611990565b606091505b5091509150816119a3576119a381611c64565b50505050565b6040805160c081018252600e5481526000602082018190526001600160a01b038516928201929092526060810160018152602001838152602001600854846119f191906121c3565b90526001600160a01b038085166000908152600c60209081526040808320805460ff19166001908117909155600e80549182018155909352845160059093027fbb7b4a454dc3493923482f07822329ed19e8244eff582cc204f8554c3620c3fd8101938455918501517fbb7b4a454dc3493923482f07822329ed19e8244eff582cc204f8554c3620c3fe8301558401517fbb7b4a454dc3493923482f07822329ed19e8244eff582cc204f8554c3620c3ff9091018054919093166001600160a01b0319821681178455606085015194955085949293916001600160a81b03191617600160a01b836004811115611ae957611ae9611d6b565b02179055506080820151816003015560a082015181600401555050826001600160a01b031681600001517fd6dd0ade89eeb414b7e63b3b71fde3db88b04f032c3d5bce15271008598f64f983608001518460a00151604051611b55929190918252602082015260400190565b60405180910390a3505050565b611b6a6112b9565b60005b600a54811015611264576000600a8281548110611b8c57611b8c612041565b600091825260208083206002909202909101546001600160a01b0316808352601090915260409091205490915015801590611bdf57506001600160a01b03811660009081526011602052604090205460ff165b15611c51576001600160a01b0381166000818152601060205260408120805491905590611c0c9082611913565b816001600160a01b03167f3123f0e0472bc9c8f1d137578255c05a4b32a7c9ab5f053a15df3eed8b5181b982604051611c4791815260200190565b60405180910390a2505b5080611c5c8161206d565b915050611b6d565b805115611c7357805160208201fd5b60405163d6bda27560e01b815260040160405180910390fd5b6040518060a001604052806000815260200160006001600160a01b03168152602001600081526020016000815260200160006004811115611ccf57611ccf611d6b565b905290565b6000815180845260005b81811015611cfa57602081850181015186830182015201611cde565b506000602082860101526020601f19601f83011685010191505092915050565b602081526000611d2d6020830184611cd4565b9392505050565b80356001600160a01b0381168114611d4b57600080fd5b919050565b600060208284031215611d6257600080fd5b611d2d82611d34565b634e487b7160e01b600052602160045260246000fd5b60058110611d9f57634e487b7160e01b600052602160045260246000fd5b9052565b602080825282518282018190526000919060409081850190868401855b82811015611e1957815180518552868101516001600160a01b03168786015285810151868601526060808201519086015260809081015190611e0481870183611d81565b505060a0939093019290850190600101611dc0565b5091979650505050505050565b60008083601f840112611e3857600080fd5b50813567ffffffffffffffff811115611e5057600080fd5b602083019150836020828501011115610ec357600080fd5b60008060208385031215611e7b57600080fd5b823567ffffffffffffffff811115611e9257600080fd5b611e9e85828601611e26565b90969095509350505050565b600060208284031215611ebc57600080fd5b5035919050565b6001600160a01b0383168152604060208201819052600090611ee790830184611cd4565b949350505050565b60006020808301818452808551808352604092508286019150828160051b87010184880160005b83811015611f5e57888303603f19018552815180516001600160a01b03168452870151878401879052611f4b87850182611cd4565b9588019593505090860190600101611f16565b509098975050505050505050565b8215158152604060208201526000611ee76040830184611cd4565b868152602081018690526001600160a01b038516604082015260c08101611fb16060830186611d81565b608082019390935260a00152949350505050565b60008060408385031215611fd857600080fd5b82359150611fe860208401611d34565b90509250929050565b600181811c9082168061200557607f821691505b60208210810361202557634e487b7160e01b600052602260045260246000fd5b50919050565b634e487b7160e01b600052604160045260246000fd5b634e487b7160e01b600052603260045260246000fd5b634e487b7160e01b600052601160045260246000fd5b60006001820161207f5761207f612057565b5060010190565b601f821115610d1357600081815260208120601f850160051c810160208610156120ad5750805b601f850160051c820191505b818110156120cc578281556001016120b9565b505050505050565b815167ffffffffffffffff8111156120ee576120ee61202b565b612102816120fc8454611ff1565b84612086565b602080601f831160018114612137576000841561211f5750858301515b600019600386901b1c1916600185901b1785556120cc565b600085815260208120601f198616915b8281101561216657888601518255948401946001909101908401612147565b50858210156121845787850151600019600388901b60f8161c191681555b5050505050600190811b01905550565b60208152816020820152818360408301376000818301604090810191909152601f909201601f19160101919050565b808201808211156121d6576121d6612057565b92915050565b80820281158282048414176121d6576121d6612057565b60008261221057634e487b7160e01b600052601260045260246000fd5b500690565b818103818111156121d6576121d661205756fea264697066735822122080c2375ff19c6725ded973053a148a84649a80930f67a198db986c6fd02819b064736f6c63430008140033a26469706673582212203ae439131bbc83686b537f1efdced1e48372b6833c7c84741b1074924bb58b3964736f6c63430008140033",
  "linkReferences": {},
  "deployedLinkReferences": {}
}